{
  "_format": "hh-sol-artifact-1",
  "contractName": "SupplyChain",
  "sourceName": "contracts/SupplyChain.sol",
  "abi": [
    {
      "inputs": [],
      "stateMutability": "nonpayable",
      "type": "constructor"
    },
    {
      "anonymous": false,
      "inputs": [
        {
          "indexed": true,
          "internalType": "uint256",
          "name": "productId",
          "type": "uint256"
        },
        {
          "indexed": false,
          "internalType": "string",
          "name": "name",
          "type": "string"
        },
        {
          "indexed": false,
          "internalType": "address",
          "name": "manufacturer",
          "type": "address"
        }
      ],
      "name": "ProductCreated",
      "type": "event"
    },
    {
      "anonymous": false,
      "inputs": [
        {
          "indexed": true,
          "internalType": "address",
          "name": "account",
          "type": "address"
        },
        {
          "indexed": false,
          "internalType": "enum SupplyChain.Role",
          "name": "role",
          "type": "uint8"
        }
      ],
      "name": "RoleAssigned",
      "type": "event"
    },
    {
      "anonymous": false,
      "inputs": [
        {
          "indexed": true,
          "internalType": "uint256",
          "name": "productId",
          "type": "uint256"
        },
        {
          "indexed": false,
          "internalType": "enum SupplyChain.State",
          "name": "newState",
          "type": "uint8"
        },
        {
          "indexed": false,
          "internalType": "address",
          "name": "actor",
          "type": "address"
        },
        {
          "indexed": false,
          "internalType": "string",
          "name": "note",
          "type": "string"
        }
      ],
      "name": "StateChanged",
      "type": "event"
    },
    {
      "inputs": [],
      "name": "admin",
      "outputs": [
        {
          "internalType": "address",
          "name": "",
          "type": "address"
        }
      ],
      "stateMutability": "view",
      "type": "function"
    },
    {
      "inputs": [
        {
          "internalType": "address",
          "name": "_account",
          "type": "address"
        },
        {
          "internalType": "enum SupplyChain.Role",
          "name": "_role",
          "type": "uint8"
        }
      ],
      "name": "assignRole",
      "outputs": [],
      "stateMutability": "nonpayable",
      "type": "function"
    },
    {
      "inputs": [
        {
          "internalType": "string",
          "name": "_name",
          "type": "string"
        }
      ],
      "name": "createProduct",
      "outputs": [
        {
          "internalType": "uint256",
          "name": "",
          "type": "uint256"
        }
      ],
      "stateMutability": "nonpayable",
      "type": "function"
    },
    {
      "inputs": [],
      "name": "getAllProducts",
      "outputs": [
        {
          "components": [
            {
              "internalType": "uint256",
              "name": "productId",
              "type": "uint256"
            },
            {
              "internalType": "string",
              "name": "name",
              "type": "string"
            },
            {
              "internalType": "address",
              "name": "manufacturer",
              "type": "address"
            },
            {
              "internalType": "address",
              "name": "currentOwner",
              "type": "address"
            },
            {
              "internalType": "enum SupplyChain.State",
              "name": "currentState",
              "type": "uint8"
            },
            {
              "internalType": "uint256",
              "name": "createdAt",
              "type": "uint256"
            }
          ],
          "internalType": "struct SupplyChain.ProductView[]",
          "name": "",
          "type": "tuple[]"
        }
      ],
      "stateMutability": "view",
      "type": "function"
    },
    {
      "inputs": [
        {
          "internalType": "uint256",
          "name": "_id",
          "type": "uint256"
        }
      ],
      "name": "getHistory",
      "outputs": [
        {
          "components": [
            {
              "internalType": "enum SupplyChain.State",
              "name": "state",
              "type": "uint8"
            },
            {
              "internalType": "address",
              "name": "actor",
              "type": "address"
            },
            {
              "internalType": "uint256",
              "name": "timestamp",
              "type": "uint256"
            },
            {
              "internalType": "string",
              "name": "note",
              "type": "string"
            }
          ],
          "internalType": "struct SupplyChain.HistoryRecord[]",
          "name": "",
          "type": "tuple[]"
        }
      ],
      "stateMutability": "view",
      "type": "function"
    },
    {
      "inputs": [
        {
          "internalType": "uint256",
          "name": "_id",
          "type": "uint256"
        }
      ],
      "name": "getProduct",
      "outputs": [
        {
          "components": [
            {
              "internalType": "uint256",
              "name": "productId",
              "type": "uint256"
            },
            {
              "internalType": "string",
              "name": "name",
              "type": "string"
            },
            {
              "internalType": "address",
              "name": "manufacturer",
              "type": "address"
            },
            {
              "internalType": "address",
              "name": "currentOwner",
              "type": "address"
            },
            {
              "internalType": "enum SupplyChain.State",
              "name": "currentState",
              "type": "uint8"
            },
            {
              "internalType": "uint256",
              "name": "createdAt",
              "type": "uint256"
            }
          ],
          "internalType": "struct SupplyChain.ProductView",
          "name": "",
          "type": "tuple"
        }
      ],
      "stateMutability": "view",
      "type": "function"
    },
    {
      "inputs": [
        {
          "internalType": "address",
          "name": "_account",
          "type": "address"
        }
      ],
      "name": "getUserRole",
      "outputs": [
        {
          "internalType": "enum SupplyChain.Role",
          "name": "",
          "type": "uint8"
        }
      ],
      "stateMutability": "view",
      "type": "function"
    },
    {
      "inputs": [],
      "name": "productCount",
      "outputs": [
        {
          "internalType": "uint256",
          "name": "",
          "type": "uint256"
        }
      ],
      "stateMutability": "view",
      "type": "function"
    },
    {
      "inputs": [
        {
          "internalType": "uint256",
          "name": "_id",
          "type": "uint256"
        },
        {
          "internalType": "string",
          "name": "_note",
          "type": "string"
        }
      ],
      "name": "receiveProduct",
      "outputs": [],
      "stateMutability": "nonpayable",
      "type": "function"
    },
    {
      "inputs": [
        {
          "internalType": "address",
          "name": "",
          "type": "address"
        }
      ],
      "name": "roles",
      "outputs": [
        {
          "internalType": "enum SupplyChain.Role",
          "name": "",
          "type": "uint8"
        }
      ],
      "stateMutability": "view",
      "type": "function"
    },
    {
      "inputs": [
        {
          "internalType": "uint256",
          "name": "_id",
          "type": "uint256"
        }
      ],
      "name": "sellProduct",
      "outputs": [],
      "stateMutability": "nonpayable",
      "type": "function"
    },
    {
      "inputs": [
        {
          "internalType": "uint256",
          "name": "_id",
          "type": "uint256"
        },
        {
          "internalType": "string",
          "name": "_note",
          "type": "string"
        }
      ],
      "name": "shipProduct",
      "outputs": [],
      "stateMutability": "nonpayable",
      "type": "function"
    }
  ],
  "bytecode": "0x608060405234801561001057600080fd5b5033600160006101000a81548173ffffffffffffffffffffffffffffffffffffffff021916908373ffffffffffffffffffffffffffffffffffffffff16021790555061290a806100616000396000f3fe608060405234801561001057600080fd5b50600436106100b45760003560e01c80638aba5c81116100715780638aba5c811461018b57806399374642146101a7578063b9db15b4146101d7578063c8691b2a14610207578063e0f6ef8714610237578063f851a44014610255576100b4565b806302ec06be146100b957806302ee3a52146100e95780632782085114610107578063492deb1514610137578063630a195b1461015357806389c85c1a1461016f575b600080fd5b6100d360048036038101906100ce91906118f9565b610273565b6040516100e0919061195f565b60405180910390f35b6100f16105c4565b6040516100fe9190611c1c565b60405180910390f35b610121600480360381019061011c9190611c6a565b6107e2565b60405161012e9190611cdf565b60405180910390f35b610151600480360381019061014c9190611d26565b610837565b005b61016d60048036038101906101689190611d78565b610b7d565b005b61018960048036038101906101849190611db8565b610cc5565b005b6101a560048036038101906101a09190611db8565b611064565b005b6101c160048036038101906101bc9190611c6a565b611403565b6040516101ce9190611cdf565b60405180910390f35b6101f160048036038101906101ec9190611d26565b611423565b6040516101fe9190611ea1565b60405180910390f35b610221600480360381019061021c9190611d26565b6115f5565b60405161022e9190611fe8565b60405180910390f35b61023f6117ea565b60405161024c919061195f565b60405180910390f35b61025d6117f0565b60405161026a9190612019565b60405180910390f35b6000600180600381111561028a57610289611a86565b5b6000803373ffffffffffffffffffffffffffffffffffffffff1673ffffffffffffffffffffffffffffffffffffffff16815260200190815260200160002060009054906101000a900460ff1660038111156102e8576102e7611a86565b5b14610328576040517f08c379a000000000000000000000000000000000000000000000000000000000815260040161031f90612091565b60405180910390fd5b6003600081548092919061033b906120e0565b9190505550600060035490506000600260008381526020019081526020016000209050818160000181905550858582600101918261037a92919061236e565b50338160020160006101000a81548173ffffffffffffffffffffffffffffffffffffffff021916908373ffffffffffffffffffffffffffffffffffffffff160217905550338160030160006101000a81548173ffffffffffffffffffffffffffffffffffffffff021916908373ffffffffffffffffffffffffffffffffffffffff16021790555060008160030160146101000a81548160ff0219169083600381111561042957610428611a86565b5b02179055504281600401819055508060050160405180608001604052806000600381111561045a57610459611a86565b5b81526020013373ffffffffffffffffffffffffffffffffffffffff1681526020014281526020016040518060400160405280600f81526020017f50726f6475637420637265617465640000000000000000000000000000000000815250815250908060018154018082558091505060019003906000526020600020906003020160009091909190915060008201518160000160006101000a81548160ff0219169083600381111561050e5761050d611a86565b5b021790555060208201518160000160016101000a81548173ffffffffffffffffffffffffffffffffffffffff021916908373ffffffffffffffffffffffffffffffffffffffff160217905550604082015181600101556060820151816002019081610579919061243e565b505050817faf6ffb6277511513e7d579327cc1fc57f0266df2fb11a60b13487b8c9cd2c3888787336040516105b09392919061254c565b60405180910390a281935050505092915050565b6060600060035467ffffffffffffffff8111156105e4576105e3612133565b5b60405190808252806020026020018201604052801561061d57816020015b61060a611816565b8152602001906001900390816106025790505b50905060005b6003548110156107da57600060026000600184610640919061257e565b815260200190815260200160002090506040518060c001604052808260000154815260200182600101805461067490612191565b80601f01602080910402602001604051908101604052809291908181526020018280546106a090612191565b80156106ed5780601f106106c2576101008083540402835291602001916106ed565b820191906000526020600020905b8154815290600101906020018083116106d057829003601f168201915b505050505081526020018260020160009054906101000a900473ffffffffffffffffffffffffffffffffffffffff1673ffffffffffffffffffffffffffffffffffffffff1681526020018260030160009054906101000a900473ffffffffffffffffffffffffffffffffffffffff1673ffffffffffffffffffffffffffffffffffffffff1681526020018260030160149054906101000a900460ff16600381111561079b5761079a611a86565b5b815260200182600401548152508383815181106107bb576107ba6125b2565b5b60200260200101819052505080806107d2906120e0565b915050610623565b508091505090565b60008060008373ffffffffffffffffffffffffffffffffffffffff1673ffffffffffffffffffffffffffffffffffffffff16815260200190815260200160002060009054906101000a900460ff169050919050565b600380600381111561084c5761084b611a86565b5b6000803373ffffffffffffffffffffffffffffffffffffffff1673ffffffffffffffffffffffffffffffffffffffff16815260200190815260200160002060009054906101000a900460ff1660038111156108aa576108a9611a86565b5b146108ea576040517f08c379a00000000000000000000000000000000000000000000000000000000081526004016108e190612091565b60405180910390fd5b816000811180156108fd57506003548111155b61093c576040517f08c379a00000000000000000000000000000000000000000000000000000000081526004016109339061262d565b60405180910390fd5b60006002600085815260200190815260200160002090506002600381111561096757610966611a86565b5b8160030160149054906101000a900460ff16600381111561098b5761098a611a86565b5b146109cb576040517f08c379a00000000000000000000000000000000000000000000000000000000081526004016109c290612699565b60405180910390fd5b60038160030160146101000a81548160ff021916908360038111156109f3576109f2611a86565b5b0217905550806005016040518060800160405280600380811115610a1a57610a19611a86565b5b81526020013373ffffffffffffffffffffffffffffffffffffffff1681526020014281526020016040518060400160405280601481526020017f536f6c6420746f20656e6420637573746f6d6572000000000000000000000000815250815250908060018154018082558091505060019003906000526020600020906003020160009091909190915060008201518160000160006101000a81548160ff02191690836003811115610ace57610acd611a86565b5b021790555060208201518160000160016101000a81548173ffffffffffffffffffffffffffffffffffffffff021916908373ffffffffffffffffffffffffffffffffffffffff160217905550604082015181600101556060820151816002019081610b39919061243e565b505050837f89575a4617b93897746c9838c1382d668859e78cd6dad830a29975d32bcf89dd600333604051610b6f929190612714565b60405180910390a250505050565b600160009054906101000a900473ffffffffffffffffffffffffffffffffffffffff1673ffffffffffffffffffffffffffffffffffffffff163373ffffffffffffffffffffffffffffffffffffffff1614610c0d576040517f08c379a0000000000000000000000000000000000000000000000000000000008152600401610c049061279c565b60405180910390fd5b806000808473ffffffffffffffffffffffffffffffffffffffff1673ffffffffffffffffffffffffffffffffffffffff16815260200190815260200160002060006101000a81548160ff02191690836003811115610c6e57610c6d611a86565b5b02179055508173ffffffffffffffffffffffffffffffffffffffff167f4ac36fa53f167ceb85964be512e01de2a3b8bdb9862f917da079deeeff689b3882604051610cb99190611cdf565b60405180910390a25050565b6003806003811115610cda57610cd9611a86565b5b6000803373ffffffffffffffffffffffffffffffffffffffff1673ffffffffffffffffffffffffffffffffffffffff16815260200190815260200160002060009054906101000a900460ff166003811115610d3857610d37611a86565b5b14610d78576040517f08c379a0000000000000000000000000000000000000000000000000000000008152600401610d6f90612091565b60405180910390fd5b83600081118015610d8b57506003548111155b610dca576040517f08c379a0000000000000000000000000000000000000000000000000000000008152600401610dc19061262d565b60405180910390fd5b600060026000878152602001908152602001600020905060016003811115610df557610df4611a86565b5b8160030160149054906101000a900460ff166003811115610e1957610e18611a86565b5b14610e59576040517f08c379a0000000000000000000000000000000000000000000000000000000008152600401610e5090612808565b60405180910390fd5b338160030160006101000a81548173ffffffffffffffffffffffffffffffffffffffff021916908373ffffffffffffffffffffffffffffffffffffffff16021790555060028160030160146101000a81548160ff02191690836003811115610ec457610ec3611a86565b5b021790555080600501604051806080016040528060026003811115610eec57610eeb611a86565b5b81526020013373ffffffffffffffffffffffffffffffffffffffff16815260200142815260200187878080601f016020809104026020016040519081016040528093929190818152602001838380828437600081840152601f19601f82011690508083019250505050505050815250908060018154018082558091505060019003906000526020600020906003020160009091909190915060008201518160000160006101000a81548160ff02191690836003811115610faf57610fae611a86565b5b021790555060208201518160000160016101000a81548173ffffffffffffffffffffffffffffffffffffffff021916908373ffffffffffffffffffffffffffffffffffffffff16021790555060408201518160010155606082015181600201908161101a919061243e565b505050857f89575a4617b93897746c9838c1382d668859e78cd6dad830a29975d32bcf89dd60023388886040516110549493929190612828565b60405180910390a2505050505050565b600280600381111561107957611078611a86565b5b6000803373ffffffffffffffffffffffffffffffffffffffff1673ffffffffffffffffffffffffffffffffffffffff16815260200190815260200160002060009054906101000a900460ff1660038111156110d7576110d6611a86565b5b14611117576040517f08c379a000000000000000000000000000000000000000000000000000000000815260040161110e90612091565b60405180910390fd5b8360008111801561112a57506003548111155b611169576040517f08c379a00000000000000000000000000000000000000000000000000000000081526004016111609061262d565b60405180910390fd5b60006002600087815260200190815260200160002090506000600381111561119457611193611a86565b5b8160030160149054906101000a900460ff1660038111156111b8576111b7611a86565b5b146111f8576040517f08c379a00000000000000000000000000000000000000000000000000000000081526004016111ef906128b4565b60405180910390fd5b338160030160006101000a81548173ffffffffffffffffffffffffffffffffffffffff021916908373ffffffffffffffffffffffffffffffffffffffff16021790555060018160030160146101000a81548160ff0219169083600381111561126357611262611a86565b5b02179055508060050160405180608001604052806001600381111561128b5761128a611a86565b5b81526020013373ffffffffffffffffffffffffffffffffffffffff16815260200142815260200187878080601f016020809104026020016040519081016040528093929190818152602001838380828437600081840152601f19601f82011690508083019250505050505050815250908060018154018082558091505060019003906000526020600020906003020160009091909190915060008201518160000160006101000a81548160ff0219169083600381111561134e5761134d611a86565b5b021790555060208201518160000160016101000a81548173ffffffffffffffffffffffffffffffffffffffff021916908373ffffffffffffffffffffffffffffffffffffffff1602179055506040820151816001015560608201518160020190816113b9919061243e565b505050857f89575a4617b93897746c9838c1382d668859e78cd6dad830a29975d32bcf89dd60013388886040516113f39493929190612828565b60405180910390a2505050505050565b60006020528060005260406000206000915054906101000a900460ff1681565b61142b611816565b8160008111801561143e57506003548111155b61147d576040517f08c379a00000000000000000000000000000000000000000000000000000000081526004016114749061262d565b60405180910390fd5b60006002600085815260200190815260200160002090506040518060c00160405280826000015481526020018260010180546114b890612191565b80601f01602080910402602001604051908101604052809291908181526020018280546114e490612191565b80156115315780601f1061150657610100808354040283529160200191611531565b820191906000526020600020905b81548152906001019060200180831161151457829003601f168201915b505050505081526020018260020160009054906101000a900473ffffffffffffffffffffffffffffffffffffffff1673ffffffffffffffffffffffffffffffffffffffff1681526020018260030160009054906101000a900473ffffffffffffffffffffffffffffffffffffffff1673ffffffffffffffffffffffffffffffffffffffff1681526020018260030160149054906101000a900460ff1660038111156115df576115de611a86565b5b8152602001826004015481525092505050919050565b60608160008111801561160a57506003548111155b611649576040517f08c379a00000000000000000000000000000000000000000000000000000000081526004016116409061262d565b60405180910390fd5b60026000848152602001908152602001600020600501805480602002602001604051908101604052809291908181526020016000905b828210156117de57838290600052602060002090600302016040518060800160405290816000820160009054906101000a900460ff1660038111156116c7576116c6611a86565b5b60038111156116d9576116d8611a86565b5b81526020016000820160019054906101000a900473ffffffffffffffffffffffffffffffffffffffff1673ffffffffffffffffffffffffffffffffffffffff1673ffffffffffffffffffffffffffffffffffffffff1681526020016001820154815260200160028201805461174d90612191565b80601f016020809104026020016040519081016040528092919081815260200182805461177990612191565b80156117c65780601f1061179b576101008083540402835291602001916117c6565b820191906000526020600020905b8154815290600101906020018083116117a957829003601f168201915b5050505050815250508152602001906001019061167f565b50505050915050919050565b60035481565b600160009054906101000a900473ffffffffffffffffffffffffffffffffffffffff1681565b6040518060c001604052806000815260200160608152602001600073ffffffffffffffffffffffffffffffffffffffff168152602001600073ffffffffffffffffffffffffffffffffffffffff1681526020016000600381111561187d5761187c611a86565b5b8152602001600081525090565b600080fd5b600080fd5b600080fd5b600080fd5b600080fd5b60008083601f8401126118b9576118b8611894565b5b8235905067ffffffffffffffff8111156118d6576118d5611899565b5b6020830191508360018202830111156118f2576118f161189e565b5b9250929050565b600080602083850312156119105761190f61188a565b5b600083013567ffffffffffffffff81111561192e5761192d61188f565b5b61193a858286016118a3565b92509250509250929050565b6000819050919050565b61195981611946565b82525050565b60006020820190506119746000830184611950565b92915050565b600081519050919050565b600082825260208201905092915050565b6000819050602082019050919050565b6119af81611946565b82525050565b600081519050919050565b600082825260208201905092915050565b60005b838110156119ef5780820151818401526020810190506119d4565b60008484015250505050565b6000601f19601f8301169050919050565b6000611a17826119b5565b611a2181856119c0565b9350611a318185602086016119d1565b611a3a816119fb565b840191505092915050565b600073ffffffffffffffffffffffffffffffffffffffff82169050919050565b6000611a7082611a45565b9050919050565b611a8081611a65565b82525050565b7f4e487b7100000000000000000000000000000000000000000000000000000000600052602160045260246000fd5b60048110611ac657611ac5611a86565b5b50565b6000819050611ad782611ab5565b919050565b6000611ae782611ac9565b9050919050565b611af781611adc565b82525050565b600060c083016000830151611b1560008601826119a6565b5060208301518482036020860152611b2d8282611a0c565b9150506040830151611b426040860182611a77565b506060830151611b556060860182611a77565b506080830151611b686080860182611aee565b5060a0830151611b7b60a08601826119a6565b508091505092915050565b6000611b928383611afd565b905092915050565b6000602082019050919050565b6000611bb28261197a565b611bbc8185611985565b935083602082028501611bce85611996565b8060005b85811015611c0a5784840389528151611beb8582611b86565b9450611bf683611b9a565b925060208a01995050600181019050611bd2565b50829750879550505050505092915050565b60006020820190508181036000830152611c368184611ba7565b905092915050565b611c4781611a65565b8114611c5257600080fd5b50565b600081359050611c6481611c3e565b92915050565b600060208284031215611c8057611c7f61188a565b5b6000611c8e84828501611c55565b91505092915050565b60048110611ca857611ca7611a86565b5b50565b6000819050611cb982611c97565b919050565b6000611cc982611cab565b9050919050565b611cd981611cbe565b82525050565b6000602082019050611cf46000830184611cd0565b92915050565b611d0381611946565b8114611d0e57600080fd5b50565b600081359050611d2081611cfa565b92915050565b600060208284031215611d3c57611d3b61188a565b5b6000611d4a84828501611d11565b91505092915050565b60048110611d6057600080fd5b50565b600081359050611d7281611d53565b92915050565b60008060408385031215611d8f57611d8e61188a565b5b6000611d9d85828601611c55565b9250506020611dae85828601611d63565b9150509250929050565b600080600060408486031215611dd157611dd061188a565b5b6000611ddf86828701611d11565b935050602084013567ffffffffffffffff811115611e0057611dff61188f565b5b611e0c868287016118a3565b92509250509250925092565b600060c083016000830151611e3060008601826119a6565b5060208301518482036020860152611e488282611a0c565b9150506040830151611e5d6040860182611a77565b506060830151611e706060860182611a77565b506080830151611e836080860182611aee565b5060a0830151611e9660a08601826119a6565b508091505092915050565b60006020820190508181036000830152611ebb8184611e18565b905092915050565b600081519050919050565b600082825260208201905092915050565b6000819050602082019050919050565b6000608083016000830151611f076000860182611aee565b506020830151611f1a6020860182611a77565b506040830151611f2d60408601826119a6565b5060608301518482036060860152611f458282611a0c565b9150508091505092915050565b6000611f5e8383611eef565b905092915050565b6000602082019050919050565b6000611f7e82611ec3565b611f888185611ece565b935083602082028501611f9a85611edf565b8060005b85811015611fd65784840389528151611fb78582611f52565b9450611fc283611f66565b925060208a01995050600181019050611f9e565b50829750879550505050505092915050565b600060208201905081810360008301526120028184611f73565b905092915050565b61201381611a65565b82525050565b600060208201905061202e600083018461200a565b92915050565b600082825260208201905092915050565b7f556e617574686f72697a656420726f6c65000000000000000000000000000000600082015250565b600061207b601183612034565b915061208682612045565b602082019050919050565b600060208201905081810360008301526120aa8161206e565b9050919050565b7f4e487b7100000000000000000000000000000000000000000000000000000000600052601160045260246000fd5b60006120eb82611946565b91507fffffffffffffffffffffffffffffffffffffffffffffffffffffffffffffffff820361211d5761211c6120b1565b5b600182019050919050565b600082905092915050565b7f4e487b7100000000000000000000000000000000000000000000000000000000600052604160045260246000fd5b7f4e487b7100000000000000000000000000000000000000000000000000000000600052602260045260246000fd5b600060028204905060018216806121a957607f821691505b6020821081036121bc576121bb612162565b5b50919050565b60008190508160005260206000209050919050565b60006020601f8301049050919050565b600082821b905092915050565b6000600883026122247fffffffffffffffffffffffffffffffffffffffffffffffffffffffffffffffff826121e7565b61222e86836121e7565b95508019841693508086168417925050509392505050565b6000819050919050565b600061226b61226661226184611946565b612246565b611946565b9050919050565b6000819050919050565b61228583612250565b61229961229182612272565b8484546121f4565b825550505050565b600090565b6122ae6122a1565b6122b981848461227c565b505050565b5b818110156122dd576122d26000826122a6565b6001810190506122bf565b5050565b601f821115612322576122f3816121c2565b6122fc846121d7565b8101602085101561230b578190505b61231f612317856121d7565b8301826122be565b50505b505050565b600082821c905092915050565b600061234560001984600802612327565b1980831691505092915050565b600061235e8383612334565b9150826002028217905092915050565b6123788383612128565b67ffffffffffffffff81111561239157612390612133565b5b61239b8254612191565b6123a68282856122e1565b6000601f8311600181146123d557600084156123c3578287013590505b6123cd8582612352565b865550612435565b601f1984166123e3866121c2565b60005b8281101561240b578489013582556001820191506020850194506020810190506123e6565b868310156124285784890135612424601f891682612334565b8355505b6001600288020188555050505b50505050505050565b612447826119b5565b67ffffffffffffffff8111156124605761245f612133565b5b61246a8254612191565b6124758282856122e1565b600060209050601f8311600181146124a85760008415612496578287015190505b6124a08582612352565b865550612508565b601f1984166124b6866121c2565b60005b828110156124de578489015182556001820191506020850194506020810190506124b9565b868310156124fb57848901516124f7601f891682612334565b8355505b6001600288020188555050505b505050505050565b82818337600083830152505050565b600061252b8385612034565b9350612538838584612510565b612541836119fb565b840190509392505050565b6000604082019050818103600083015261256781858761251f565b9050612576602083018461200a565b949350505050565b600061258982611946565b915061259483611946565b92508282019050808211156125ac576125ab6120b1565b5b92915050565b7f4e487b7100000000000000000000000000000000000000000000000000000000600052603260045260246000fd5b7f50726f64756374206e6f7420666f756e64000000000000000000000000000000600082015250565b6000612617601183612034565b9150612622826125e1565b602082019050919050565b600060208201905081810360008301526126468161260a565b9050919050565b7f43616e6e6f742073656c6c3a2077726f6e672073746174650000000000000000600082015250565b6000612683601883612034565b915061268e8261264d565b602082019050919050565b600060208201905081810360008301526126b281612676565b9050919050565b6126c281611adc565b82525050565b7f536f6c6420746f20656e6420637573746f6d6572000000000000000000000000600082015250565b60006126fe601483612034565b9150612709826126c8565b602082019050919050565b600060608201905061272960008301856126b9565b612736602083018461200a565b8181036040830152612747816126f1565b90509392505050565b7f4e6f742061646d696e0000000000000000000000000000000000000000000000600082015250565b6000612786600983612034565b915061279182612750565b602082019050919050565b600060208201905081810360008301526127b581612779565b9050919050565b7f43616e6e6f7420726563656976653a2077726f6e672073746174650000000000600082015250565b60006127f2601b83612034565b91506127fd826127bc565b602082019050919050565b60006020820190508181036000830152612821816127e5565b9050919050565b600060608201905061283d60008301876126b9565b61284a602083018661200a565b818103604083015261285d81848661251f565b905095945050505050565b7f43616e6e6f7420736869703a2077726f6e672073746174650000000000000000600082015250565b600061289e601883612034565b91506128a982612868565b602082019050919050565b600060208201905081810360008301526128cd81612891565b905091905056fea26469706673582212204aebbf6ea9e162eef4019b91c65166658b98e174d0691ac3772c6327c623580064736f6c63430008140033",
  "linkReferences": {},
  "deployedLinkReferences": {}
}